:020000040800F2
:10000000780600208901000891010008930100088A
:100010009501000897010008990100080000000000
:100020000000000000000000000000009B0100082C
:100030009D010008000000009F0100080106000863
:10004000A3010008A3010008A3010008A301000800
:10005000A3010008A3010008A3010008A3010008F0
:10006000A3010008A3010008A3010008A3010008E0
:10007000A3010008A3010008A3010008A3010008D0
:10008000A3010008A3010008A3010008A3010008C0
:10009000A3010008A3010008A3010008A3010008B0
:1000A000A3010008A3010008A3010008A3010008A0
:1000B000A3010008A3010008A3010008A301000890
:1000C000A3010008A3010008A3010008A301000880
:1000D000A3010008A3010008A3010008A301000870
:1000E000A3010008A3010008A301000800F002F822
:1000F00000F03AF80AA090E8000C82448344AAF188
:100100000107DA4501D100F02FF8AFF2090EBAE885
:100110000F0013F0010F18BFFB1A43F0010318473B
:1001200098060000B8060000103A24BF78C878C1CD
:10013000FAD8520724BF30C830C144BF04680C60ED
:10014000704700000023002400250026103A28BF35
:1001500078C1FBD8520728BF30C148BF0B60704739
:100160001FB51FBD10B510BD00F031F81146FFF7E7
:10017000F7FF00F0DBFA00F04FF803B4FFF7F2FFEF
:1001800003BC00F057F800000948804709480047C1
:10019000FEE7FEE7FEE7FEE7FEE7FEE7FEE7FEE737
:1001A000FEE7FEE704480549054A064B7047000094
:1001B000CD060008ED000008780000207806002039
:1001C000780200207802002070477047704775461B
:1001D00000F02CF8AE4605006946534620F00700B3
:1001E000854618B020B5FFF7DDFFBDE820404FF091
:1001F00000064FF000074FF000084FF0000B21F011
:100200000701AC46ACE8C009ACE8C009ACE8C009DD
:10021000ACE8C0098D46704710B50446AFF30080C6
:100220002046BDE81040FFF7A8BF00000048704717
:100230001800002001491820ABBEFEE7260002008E
:10024000704710B500F0D6F84FF4803000F01EF97A
:1002500000BF312000F0F4F80028FAD04FF4E0118C
:100260004FF4803000F03EF9012000F035F900BF76
:10027000392000F0E5F80028FAD0022000F040F91B
:1002800000BF00F0FBF80828FBD100F0CDF910BD4D
:100290002DE9F0410246002500260020002300241D
:1002A000002791F803C00CF00F0591F803C00CF083
:1002B000100CBCF1000F03D091F802C04CEA050508
:1002C00091F800C0BCF1000F31D0146800202BE081
:1002D0004FF0010C0CFA00F3B1F800C00CEA030671
:1002E0009E4220D183004FF00F0C0CFA03F7BC4361
:1002F00005FA03FC4CEA040491F803C0BCF1280F92
:1003000006D14FF0010C0CFA00FCC2F814C00AE050
:1003100091F803C0BCF1480F05D14FF0010C0CFA65
:1003200000FCC2F810C0401C0828D1D31460B1F8FA
:1003300000C0BCF1FF0F34DD546800202EE000F156
:10034000080C4FF0010808FA0CF3B1F800C00CEAF1
:1003500003069E4221D183004FF00F0C0CFA03F7E5
:10036000BC4305FA03FC4CEA040491F803C0BCF159
:10037000280F05D100F1080C08FA0CF8C2F8148017
:1003800091F803C0BCF1480F07D100F1080C4FF001
:10039000010808FA0CF8C2F81080401C0828CED3D7
:1003A0005460BDE8F081000008B50121082000F08C
:1003B00011F84FF48050ADF8000010208DF80300C4
:1003C00002208DF8020069460148FFF761FF08BD71
:1003D000000C014029B1064A92690243044B9A611C
:1003E00004E0034A92698243014B9A61704700001E
:1003F000001002400F48006840F001000D490860FD
:10040000084640680C4908400A49486008460068A8
:100410000A490840074908600846006820F480201F
:1004200008600846406820F4FE0048604FF41F0052
:1004300088607047001002400000FFF8FFFFF6FEE2
:1004400010B501460022002300204A11012A02D1E2
:10045000094C236806E0022A02D1074C236A01E016
:10046000054C636A01F01F02012494401C400CB14A
:10047000012000E0002010BD00100240024840684A
:1004800000F00C007047000000100240114909689C
:1004900021F480310F4A11601146096821F480214E
:1004A0001160B0F5803F03D0B0F5802F0ED106E08B
:1004B0000849096841F48031064A116007E005499E
:1004C000096841F4A021034A116000E000BF00BFA9
:1004D00070470000001002400149086670470000A4
:1004E0000000424202460020044B586820F47C1071
:1004F00042EA01031843014B586070470010024064
:1005000001460020034A506820F003000843506071
:10051000704700000010024010B500F001F810BD57
:100520000CB50020019000903348006840F4803002
:100530003149086000BF3048006800F40030009086
:100540000198401C0190009818B90198B0F5A06F6F
:10055000F1D12948006800F4003010B1012000906A
:1005600001E0002000900098012843D12348006852
:1005700040F01000214908600846006820F007009C
:1005800008600846006840F0020008601A484068A9
:10059000194948600846406848600846406840F489
:1005A000806048600846406820F47C104860084637
:1005B000406840F4E81048600846006840F08070E9
:1005C000086000BF0C48006800F000700028F9D0F7
:1005D0000948406820F00300074948600846406821
:1005E00040F00200486000BF0348406800F00C0083
:1005F0000828F9D10CBD0000001002400020024084
:1006000007480088401C0649088008460088B0F565
:100610007A7F04DB002008800120024908707047BF
:10062000020000200000002010B500210020002260
:10063000214B5B6803F00C0121B1042906D0082985
:1006400028D107E01D4B1E4C236027E01B4B1C4CA0
:10065000236023E0184B5B6803F47010164B5B6853
:1006600003F48032022303EB904022B9154B43433D
:10067000134C23600DE0104B5B6803F4003323B18F
:10068000104B43430E4C236003E00C4B43430C4C94
:10069000236003E0094B0A4C236000BF00BF064BF8
:1006A0005B68C3F30313084CE15C054B1B68CB404C
:1006B000034C236010BD00000010024000127A00BD
:1006C0000400002000093D000800002010B5134878
:1006D000006840F001001149086008464068104970
:1006E00008400E494860084600680E4908400B491A
:1006F00008600846006820F48020086008464068CA
:1007000020F4FE0048604FF41F008860FFF704FFEC
:100710004FF000600449086010BD00000010024066
:100720000000FFF8FFFFF6FE08ED00E0FFF789FD8F
:10073000FFF73AFE1B4800684FF47A72B0FBF2F103
:10074000B1F1807F00D31DE021F07F40401E4FF0CB
:10075000E022506150170F22002807DA13071D0E00
:10076000114B00F00F04241F1D5503E013071C0E4E
:100770000E4B1C5400BF00204FF0E0229061072078
:10078000106100BF0CE00A48007840B10020084921
:1007900008700848006880F480500649086030BF3F
:1007A000F1E700000400002018ED00E000E400E0A4
:1007B000000000200C0C0140D807000800000020B9
:1007C0001800000028010008F007000818000020A9
:1007D00060060000440100080000000000A24A0476
:1007E00000000000000000000102030406070809E1
:040000050800018965
:00000001FF
