:020000040800F2
:100000007806002091010008990100089B01000872
:100010009D0100089F010008A101000800000000E8
:10002000000000000000000000000000A301000824
:10003000A501000800000000A7010008A9010008B0
:10004000AB010008AB010008AB010008AB010008E0
:10005000AB010008AB010008AB010008AB010008D0
:10006000AB010008AB010008AB010008AB010008C0
:10007000AB010008AB010008AB010008AB010008B0
:10008000AB010008AB010008AB010008AB010008A0
:10009000AB010008AB010008AB010008AB01000890
:1000A000AB010008AB010008AB010008AB01000880
:1000B000AB010008AB010008AB010008AB01000870
:1000C000AB010008AB010008AB010008AB01000860
:1000D000AB010008AB010008AB010008AB01000850
:1000E000AB010008AB010008AB01000800F002F80A
:1000F00000F03FF80AA090E8000C82448344AAF183
:100100000107DA4501D100F034F8AFF2090EBAE880
:100110000F0013F0010F18BFFB1A43F0010318473B
:10012000600B0000800B0000103A24BF78C878C133
:10013000FAD8520724BF30C830C144BF04680C60ED
:10014000704700000023002400250026103A28BF35
:1001500078C1FBD8520728BF30C148BF0B60704739
:10016000642900F07D80002070471FB51FBD10B5C9
:1001700010BD00F02AF91146FFF7F7FF00F024FD4B
:1001800000F048F903B4FFF7F2FF03BC00F050F9A8
:100190000948804709480047FEE7FEE7FEE7FEE71B
:1001A000FEE7FEE7FEE7FEE7FEE7FEE70448054957
:1001B000054A064B70470000D9090008ED00000809
:1001C00078000020780600207802002078020020C5
:1001D0000FB41CB5074B06AA7B44694600900598EE
:1001E00000F0DBF80020694600F0EAF81CBC5DF87E
:1001F00014FB0000E50100002DE9F0410E46044625
:10020000002020622046E168884730B3252805D0C9
:10021000D4E901219047206A401CF2E7E1682046BA
:1002200000278847050018D0A5F14100192802D8F9
:1002300020354FF400673246294620462760FFF7F5
:100240008FFF40B1012804D0F61D26F007060836BE
:10025000D8E7361DD6E72846DAE7206ABDE8F08100
:100260002DE9F0410646002410687529314616A58F
:1002700010D0AFF30080002802DA404213A507E057
:1002800031688A0701D512A502E0490704D511A5F6
:10029000012401E0AFF3008000210A2206F12407C7
:1002A00009E0B0FBF2FCB0FBF2F302FB1C003030C3
:1002B00078541846491C0028F3D123462A46304674
:1002C000BDE8F04100F00BB8000000002D00000078
:1002D0002B000000200000007047704770472DE998
:1002E000F0470D4699469246044600F124080168FD
:1002F000880604D5E06921F01001216000E00120AA
:10030000A84201DD471B00E00027A1697A1902EB32
:100310000900081AA0612078C00602D42046AFF375
:100320000080002608E0D4E901211AF80600904771
:10033000206A401C761C20624E45F4DB2078C00603
:100340000AD52046AFF3008006E0D4E90121302031
:100350009047206A401C2062381EA7F10107F4DC98
:1003600007E0D4E9012118F805009047206A401CF5
:100370002062281EA5F10105F3DC2046AFF30080C2
:100380002078000602D50220BDE8F0870120FBE7B7
:1003900001694A1C02610878704700B58FB0CDE949
:1003A00001310021059105497944CDE90310114639
:1003B0006846FFF721FF0FB000BD0000E5FFFFFF1B
:1003C0000A6802F8010B0A607047754600F02CF8C5
:1003D000AE4605006946534620F00700854618B032
:1003E00020B5FFF7E3FEBDE820404FF000064FF0D8
:1003F00000074FF000084FF0000B21F00701AC465A
:10040000ACE8C009ACE8C009ACE8C009ACE8C00978
:100410008D46704710B50446AFF300802046BDE816
:100420001040FFF7AFBE00000048704714000020E6
:1004300001491820ABBEFEE726000200704708B550
:100440000021009103E000BF0099491C0091C0EB1E
:100450004011C1EB0021009AB2EB411FF3D308BD5C
:100460002DE9F0410246002500260020002300244B
:10047000002791F803C00CF00F0591F803C00CF0B1
:10048000100CBCF1000F03D091F802C04CEA050536
:1004900091F800C0BCF1000F31D0146800202BE0AF
:1004A0004FF0010C0CFA00F3B1F800C00CEA03069F
:1004B0009E4220D183004FF00F0C0CFA03F7BC438F
:1004C00005FA03FC4CEA040491F803C0BCF1280FC0
:1004D00006D14FF0010C0CFA00FCC2F814C00AE07F
:1004E00091F803C0BCF1480F05D14FF0010C0CFA94
:1004F00000FCC2F810C0401C0828D1D31460B1F829
:1005000000C0BCF1FF0F34DD546800202EE000F184
:10051000080C4FF0010808FA0CF3B1F800C00CEA1F
:1005200003069E4221D183004FF00F0C0CFA03F713
:10053000BC4305FA03FC4CEA040491F803C0BCF187
:10054000280F05D100F1080C08FA0CF8C2F8148045
:1005500091F803C0BCF1480F07D100F1080C4FF02F
:10056000010808FA0CF8C2F81080401C0828CED305
:100570005460BDE8F0810000014908627047000046
:1005800000000E420349096841EA8001014A1160F6
:1005900070470000007000400A48006840F0040006
:1005A000084908600846006840F0020008600648F4
:1005B000006840F004000449086000BF00BF30BF7D
:1005C000704700000070004010ED00E00146002080
:1005D000034A52680A400AB1012000E00020704737
:1005E000007000400149086070470000A0000E4202
:1005F00029B1064AD2690243044BDA6104E0034A96
:10060000D2698243014BDA6170470000001002405A
:1006100029B1064A92690243044B9A6104E0034AF5
:1006200092698243014B9A617047000000100240BA
:1006300030B500210022002400232D4D6D6805F007
:100640000C0121B1042905D0082923D105E0294D49
:10065000056022E0274D05601FE0254D6D6805F41B
:100660007012234D6D6805F48034022505EB92422B
:100670001CB9214D554305600BE01D4D6D6805F417
:1006800000351DB11C4D5543056002E0194D554321
:10069000056002E0174D056000BF00BF144D6D6896
:1006A00005F0F0010909154D6B5C0568DD404560FA
:1006B0000F4D6D6805F4E061090A104D6B5C4568EB
:1006C000DD4085600A4D6D6805F46051C90A0B4D27
:1006D0006B5C4568DD40C560054D6D6805F44041C3
:1006E000890B074D6B5CC568B5FBF3F5056130BD43
:1006F0000010024000127A0000093D0000000020B6
:100700001000002010B501460022002300204A11ED
:10071000012A02D1094C236806E0022A02D1074CC3
:10072000236A01E0054C636A01F01F020124944032
:100730001C400CB1012000E0002010BD0010024060
:1007400000210B4A11700A4A203A82F82010012831
:1007500002D0042808D103E00121054A117004E009
:100760000521034A117000E000BF00BF7047000080
:100770002010024001490860704700003C044242DA
:100780000249096A0143014A1162704700100240A0
:1007900010B501214FF0C050FFF72AFF0120FFF7ED
:1007A000EBFE0120FFF7CCFF00BF4120FFF7AAFFBF
:1007B0000028FAD04FF48070FFF7E2FF0120FFF726
:1007C000D9FF00F05DF847F6FF7000F03FF800F049
:1007D0004DF810BD0348008840F010000149088022
:1007E0007047000004280040034800884FF6EF716E
:1007F0000840014908807047042800400021034850
:100800000188001F008841EA004070471C28004012
:1008100029B1064A12880243044B1A8004E0034AB5
:1008200012888243014B1A80704700000028004064
:1008300000B50246FFF7CEFF100C03490880091DE2
:100840000A80FFF7D1FF00BD2028004000B5024616
:10085000FFF7C0FFC2F3034003490880091D0A8067
:10086000FFF7C2FF00BD00000828004000BF03489A
:10087000008800F020000028F9D0704704280040CC
:10088000074800884FF6F77108400549088000BF07
:100890000348008800F008000028F9D070470000E5
:1008A0000428004010B50120FFF79CFE0320FFF74D
:1008B00069FEFFF771FE10BD10B504460BE014F899
:1008C000011B0A4800F07CF900BF8021074800F0B6
:1008D000FDF80028F9D020780028F0D100BF402191
:1008E000024800F0F3F80028F9D010BD00380140AC
:1008F00010B500F001F810BD0CB50020019000907B
:100900003348006840F480303149086000BF304807
:10091000006800F4003000900198401C019000989D
:1009200018B90198B0F5A06FF1D12948006800F41A
:10093000003010B10120009001E0002000900098EC
:10094000012843D12348006840F010002149086085
:100950000846006820F0070008600846006840F07C
:10096000020008601A484068194948600846406813
:1009700048600846406840F4806048600846406827
:1009800020F47C1048600846406840F4E810486055
:100990000846006840F08070086000BF0C4800689E
:1009A00000F000700028F9D00948406820F00300EA
:1009B000074948600846406840F00200486000BFB0
:1009C0000348406800F00C000828F9D10CBD000075
:1009D000001002400020024010B51348006840F0AB
:1009E00001001149086008464068104908400E4956
:1009F0004860084600680E4908400B4908600846F0
:100A0000006820F4802008600846406820F4FE005A
:100A100048604FF41F008860FFF76AFF4FF00060E6
:100A20000449086010BD0000001002400000FFF8FB
:100A3000FFFFF6FE08ED00E000B585B0012144F2AD
:100A40000500FFF7E5FD4FF40070ADF8100003203E
:100A50008DF8120018208DF8130004A91348FFF731
:100A6000FFFC4FF48060ADF8100004208DF81300F7
:100A700004A90E48FFF7F4FC4FF4E1300090002089
:100A8000ADF80400ADF80600ADF80800ADF80C00B4
:100A90000C20ADF80A006946054800F025F8012150
:100AA000034800F007F805B000BD00000008014051
:100AB0000038014021B1828942F40052828104E071
:100AC00082894DF6FF731A408281704702460020EA
:100AD000B1F5007F00D100BF13880B400BB101209E
:100AE00000E00020704700002DE9F04786B0054681
:100AF0000E460024A24600BFA1460027B08900B1DF
:100B000000BF2F462C8A4CF6FF700440F088044347
:100B10002C82AC894EF6F3100440B088318908432A
:100B2000718908430443AC81AC8A4FF6FF4004400E
:100B3000B0890443AC8201A8FFF77AFD1F488742C1
:100B400002D1DDF810A001E0DDF80CA0A88900F4C6
:100B5000004040B10AEBCA0000EB0A1031684900BE
:100B6000B0FBF1F807E00AEBCA0000EB0A103168AD
:100B70008900B0FBF1F86420B8FBF0F00401200913
:100B8000642101FB1089A88900F4004040B13220A3
:100B900000EBC900B0FBF1F000F00700044308E0EF
:100BA000322000EB09106421B0FBF1F000F00F00DF
:100BB00004432C8106B0BDE8F087000000380140F6
:100BC000C1F308028280704788B0FFF705FFFFF786
:100BD00033FF0220FFF7FAFC30B10220FFF7D2FC0E
:100BE00016A0FFF769FE02E019A0FFF765FEFFF708
:100BF000CFFD01210220FFF70BFEFFF737FE012496
:100C00000CE0224617A16846FFF7E2FA6846FFF7B4
:100C100053FE4FF47A70FFF712FC641C052CF0DDD4
:100C2000FFF7ECFD00F10A042046FFF701FEFFF795
:100C30001DFEFFF737FE00BFFEE700000D0A3E3E37
:100C40003E2057414B455550203C3C3C0D0A00008E
:100C50000D0A3E3E3E20424F4F54203C3C3C0D0A84
:100C60000000000053544D33322069732072756EBA
:100C70006E696E672E2E2E2025640D0A000000007E
:100C8000A00C00080000002014000000280100084B
:100C9000B40C0008140000206406000044010008A1
:100CA0000000000001020304010203040607080912
:040CB000020406082C
:04000005080001915D
:00000001FF
